1 0010018061011601000000000000450798A0000000000018060000000024638000000000000000MULITOR RODRIGUEZ,MABEL NANCY -DEB.AUT.B        
1 0010018061011624000000000000450798A0000000000018060000000022256000000000000000SANTOS TEJEIRA,DARIO MIGUEL -DEB.BROU           
1 0010018061011795000000000000450798A0000000000018060000000017765000000000000000XAVIER YELPO,MONICA  -DEB.AUT.BROU              
1 0010018061011983000000000000450798A0000000000018060000000034642000000000000000VARELA NESTIER,CARLOS RICARDO -DEB.BROU         
1 0010018061012037000000000000450798A0000000000018060000000022743000000000000000ROSSO RODRIGUEZ,LETICIA  -DEB.BROU              
1 0010018061012775000000000000450798A0000000000018060000000017600000000000000000GONZALEZ HERNANDEZ,MARCELO EDGARDO -DEB.        
1 0010018061012776000000000000450798A0000000000018060000000017600000000000000000GONZALEZ HERNANDEZ,MARCELO EDGARDO -DEB.        
1 0010018061013769000000000000450798A0000000000018060000000018810000000000000000CAMEJO HERNANDEZ,ROSANNA LOURDES -DEB.BR        
1 0010018061013857000000000000450798A0000000000018060000000016890000000000000000LISBOA BRUSCHI,JOSE ANTONIO -DEBITO BROU        
2 001001806100000090000000000192944000000000000000000000000000000000000000000000000000000000000000000000000000000000011111111111
